:041000005FEF35F079
:0E1008003D6E3DC0C9FFC7A0FED7C950120003
:1010180000DA60941D09024300020100C03209048D
:10102800000001020201000524001001042402024C
:1010380005240600010524010001070581030800B5
:101048000209040100020A0000000705020240002C
:10105800000705820240000034034D006900630068
:1010680072006F006300680069007000200054007F
:101078006500630068006E006F006C006F00670019
:101088007900200049006E0063002E0034034300FD
:10109800440043002000520053002D00320033006A
:1010A8003200200045006D0075006C00610074007E
:1010B80069006F006E002000440065006D006F003D
:1010C8001201000202000008D8040A00000101020F
:0810D8000001040309040000FB
:10695200235012003D6E3D5003E0010AD8A4030A01
:1069620012003D6E030EE82EFED700F03D2EFAD740
:1069720012003D6EFA0E00F0E82EFDD73D2EFAD73A
:1069820012003D6E3DC0A9FFA69EA69CA680A850FF
:1069920012003E6E2E6607D03EC07FF03DC02FF043
:1069A200010E2C6E2E6E12000F6A106A116A126AA4
:1069B200F80EB16EA092B36AB26AB18012003E6E56
:1069C2008A943E5004EC08F0000E04EC08F03F6E8E
:1069D2008A843F501200698468986D824C6A750EF1
:1069E2004B6E4E6A4D6A506A4F6ADDEF35F03F6E6C
:1069F2008A943F50200904EC08F03E5004EC08F061
:106A02008A84050EB2EF34F0000EABEC34F033ECB6
:106A12003BF0DCEC3DF0200E285CD8B06DB2F9D72B
:106A220067EC3EF0F6D73E6E3EC0A9FF3DC0A8FF20
:106A3200A69EA69CA684F29EF29E550EA76EAA0E54
:106A4200A76EA682F28EAA0C4C6A740E4B6E000ED2
:106A52004E6A4D6A506A4F6AD6EC35F06D9269946F
:106A620001D0689468A41200FCD7DB0EB26403D094
:106A7200B350050A03E0050EB36409D0B190B36ABE
:106A8200B26A0F2A000E102211221222B1801200C5
:106A92003EC044F03DC043F008D043C0D9FF44C0DB
:106AA200DAFF3FC0DFFF434A442A4106D8A042062C
:106AB2004128D8B44228D8B41200EFD701EE00F032
:106AC200400EEE6AE806FDE100EE60F0710EEE6A3D
:106AD200E806FDE100EE01F03C0EEE6AE806FDE19B
:106AE200000EF86E000105EF35F070A01BD0800E8D
:106AF20017C0D9FF18C0DAFFDF6213D0840E09C0B5
:106B0200D9FF0AC0DAFFDF620CD017C0D9FF18C064
:106B1200DAFF0C0EDF6E17C0D9FF18C0DAFF000EC5
:106B2200DB8E7090689A1200456E23501CE01F386D
:106B3200F00B45100001606F42C061F0466A46509A
:106B42004324D96E000E4420DA6E4650620FE16E85
:106B5200E26ADFCFE7FF462A050E4664F0D7226AD3
:106B6200236A43EC37F012004A6E45A404D03D6A12
:106B72004A5054EC38F045A205D0010E3D6E4A5001
:106B820054EC38F0700E466E0F0E476E4A50462691
:106B9200000E472246C048F047C049F048C0D9FF1E
:106BA20049C0DAFF45C0DFFF000C06D01DEC36F00D
:106BB2001ED085EC37F01BD04BC051F04CC052F0C8
:106BC200525003E07F0A12E012D05150010AEEE067
:106BD200030A0DE0010AEDE0060A09E0770A07E080
:106BE200010A05E0070A03E0010A01D0511C120064
:106BF2003F6E3F0EC716C66A3F50C6123E50C712BE
:106C020005D0C78C0FD0C78CC6880CD03D50F9E098
:106C1200020AF9E0010AF8E005D0928A938208D0CC
:106C2200939206D03F50040AF8E0010AF7E0F8D741
:106C32009380949EC68A120041EC36F0010E936E48
:106C4200C00E926E949E0001CE6B080ED06FCF6B79
:106C5200800ECA6F250ECB6FCC6BCD6B3D6A200EBA
:106C620014EC35F09AEC38F0D5EC34F0010E246EC9
:106C7200206A1F6A00016E6B6F6B706B716B120082
:106C82000001CA6B4B0ECB6FCC6BCD6BCE6BCF6B57
:106C9200080ED06F2D6A1A0E456E010EB5EC35F056
:106CA2001E0E456E020EB5EC35F03D6A0501050E6D
:106CB2003F6E400E3E6E406E020E77EC39F03DC0E4
:106CC20015F03EC016F0136A146A2E6A1200305094
:106CD200020A03E1EFEC3CF023D0306A1D661FD0BC
:106CE20020EE01F01950D9261A50DA22080EDF6E72
:106CF20020EE02F01950D9261A50DA22300EDE6E3A
:106D0200040EDD6E19C0D9FF1AC0DAFF0C0EDF6E59
:106D120019C0D9FF1AC0DAFF000EDB8E01D01D6A3E
:106D22001200326A276A256A266A1D6A306A09C019
:106D3200D9FF0AC0DAFF7F0EDF16040E091A09C056
:106D4200D9FF0AC0DAFF7F0EDF16040E091A19C036
:106D5200D9FF1AC0DAFF7F0EDF16366A376A386A41
:106D6200046A056A066A2AEC39F04C6A030E4B6E15
:106D7200000E4E6A4D6A506A4F6AD6EC35F09CEFAF
:106D82003BF08A964A6A4AC03EF0050EF8EC34F0AF
:106D92000001826B836B846B4AC085F08669496A05
:106DA2008A860A0E486E580EE82EFED7482EFCD769
:106DB20000D0090EE0EC34F0000902E00001842B5F
:106DC2008A96280EE82EFED7492AC70E4964E8D7CC
:106DD2000001845105E0050E3D6E820ECAEC34F0CE
:106DE20079EC3CF02E66FCD79C0E486ED70EE82E4E
:106DF200FED7482EFCD700F04A2A7F0E4A64C3D73A
:106E02007F0C386B396B2CD0368E210430E13883FD
:106E12002ED0368E2CD0368E34BF07D034510F0B85
:106E2200020DF3500001680F05D034510F0B020D13
:106E3200F350090FD96EDA6ADECF3DF0DDCF3EF0B6
:106E42003DC0D9FF3EC0DAFFDFAE11D03DC0D9FF51
:106E52003EC0DAFFDFA40BD0010E0401386F07D069
:106E620030511F0BD1E0010AD4E0030AD4E036AE60
:106E720008D00401040E346E380E336E3680020ED2
:106E8200376E12008A96010EB2EC34F00A0E3E6E94
:106E9200000EF8EC34F08A94A00E04EC08F0416A7B
:106EA20041500001600FD96EDA6ADF5004EC08F03D
:106EB200412A070E4164F4D78A84010EB2EC34F001
:106EC2008A860FC072F010C073F011C074F012C045
:106ED20075F0140EB2EC34F08A94170E04EC08F03C
:106EE200000E04EC08F0406E8A8440A8F2D78A961D
:106EF2000B0E3E6E000EF8EC34F0200E3E6E070EC6
:106F0200F8EC34F08A861200040130511F0B3D6EFA
:106F12003D043DE13039E832030B3D6E3D0437E17B
:106F220034512BE0340533E128D0346A0001C20E1B
:106F3200336E000E386E080E376E3680368E27D0CE
:106F4200346A0001C20E336EF9D736C405F037C475
:106F520006F00001CA0E016E076A086A048E17D095
:106F6200346A0001CA0E336E000E386E070E376E99
:106F7200C10E366E0CD03251E1D73151D6E0010A42
:106F8200DFE0210AE2E0010AEBE0030AF4E012008A
:106F9200256A266A3050020A1DE120EE01F01950DE
:106FA200D9261A50DA22080EDF6E20EE02F01950AE
:106FB200D9261A50DA22380EDE6E040EDD6E19C0A2
:106FC200D9FF1AC0DAFF480EDF6E19C0D9FF1AC006
:106FD200DAFF20D037500401365D3850375904E2C9
:106FE20036C437F037C438F076EC3AF020EE02F0CF
:106FF2000950D9260A50DA22380EDE6E040EDD6EF2
:1070020009C0D9FF0AC0DAFF480EDF6E09C0D9FFF6
:107012000AC0DAFF000EDB8E000C09C0D9FF0AC0DD
:10702200DAFF000EDFBC010E3E6E040E091A285074
:10703200080A09E1040132517F0B6E6E6E50100E88
:10704200D8B4040E286E30042AE120EE02F0095072
:10705200D9260A50DA22380EDE6E040EDD6E76EC88
:107062003AF03250020A06E109C0D9FF0AC0DAFF3B
:10707200040E0DD03E6606D009C0D9FF0AC0DAFF61
:10708200480E05D009C0D9FF0AC0DAFF080EDF6E2C
:1070920009C0D9FF0AC0DAFF000EDB8E03D004BE9E
:1070A200049E306A1200426E0401040E446E436A6A
:1070B2003D503E6E3F6AD8903E363F364250406E5B
:1070C200416AD89040364136D890403641363E50DB
:1070D20040263F504122D89040364136D890403623
:1070E2004136405043264150442243C0D9FF44C058
:1070F200DAFFDF9E3D6606D04250020DF3500001DA
:10710200680F04D04250020DF350090FD96EDA6AAB
:1071120043C0DEFF44C0DDFF43C0D9FF44C0DAFFF5
:10712200DF9C20EE04F04350D9264450DA22DF8C53
:107132001200200EC2EC34F01F6E0F0E1F6405D039
:107142001F6E3D6E200E14EC35F08A968A84000E76
:107152003D6A3E6AF9EC35F0640EB2EC34F03E6AF8
:10716200010EF8EC34F00B0E3E6E000EF8EC34F02B
:10717200010E3E6E030EF8EC34F0010E3E6E020E6E
:10718200F8EC34F03E6A040EF8EC34F0080E3E6E71
:10719200110EF8EC34F0260E3E6E060EF8EC34F0CA
:1071A2008A94050EB2EC34F0E20E04EC08F08A8404
:1071B200050EB2EC34F08A861E6A010E236E010CB3
:1071C2002D6A1650151009E015C0D9FF16C0DAFF56
:1071D200010EDFAE000E486E01D0486A496A49507E
:1071E200481035E120EE01F01550D9261650DA226A
:1071F200DF50476E4650475C08E220EE01F0155022
:10720200D9261650DA22DF50466E2D6A0FD0400E74
:107212002D24D96EDA6A050EDA222D504424E16E4D
:10722200000E4520E26EDFCFE7FF2D2A46502D5C8F
:10723200EEE33D6A0501050E3F6E400E3E6E406E66
:10724200020E77EC39F03DC015F03EC016F02D501D
:1072520012003039E832030B48E132D0368E080E84
:10726200286E43D065EC3DF040D0C8EC39F03DD0FB
:10727200346A3B0E336E3680010E376E368E35D051
:1072820002EC37F032D001EC3FF02FD03451390FFD
:107292005A6E346A5AC033F0EED7368E3451390FF3
:1072A200D96EDA6A32C4DFFF20D04C6A020E4B6E0E
:1072B200000E4E6A4D6A506A4F6AD6EC35F015D010
:1072C2003151DEE0010ADFE0020ADDE0060AC6E033
:1072D200030AC8E0010AE9E00F0ACAE0010AC5E0B0
:1072E200030AD4E0010AD9E0070A1200416E3D50B8
:1072F20005E04150020DF350090F05D04150020D37
:10730200F3500001680FD96EDA6ADECF42F0DDCFAA
:1073120043F04350421003E13D6A3E6A37D020EE0B
:1073220002F04250D9264350DA223EC0DEFF3FC06F
:10733200DDFF20EE01F04250D9264350DA2240C050
:10734200DFFF42C0D9FF43C0DAFF400EDF1642C062
:10735200D9FF43C0DAFF000EDB8642C0D9FF43C02B
:10736200DAFFDB8E3D5005E04150020DF350090F6C
:1073720005D04150020DF3500001680FD96EDA6A50
:10738200040EDF1A43C03EF042C03DF01200368EBA
:107392000F0E3E6E710E3D6E406A3F6A426A020EE9
:1073A200416E49EC35F00401040E3E6E3D6A406ABE
:1073B2003F6A426A300E416E49EC35F06D8C536A79
:1073C20053500001760FD96EDA6ADF6A5350790F93
:1073D200D96EDA6ADF6A532A020E5364F1D73E6A23
:1073E200390E3D6E406A3F6A426A020E416E49ECB6
:1073F20035F06D9C0401040E0A6E080E096E040E2F
:10740200186E000E176E18C01AF017C019F032C4A9
:107412003BF03B6602D0100E0CD04C6A010E4B6E54
:107422004E6A3B0E4D6E506A010E4F6ED6EC35F031
:10743200200E286E1200296657D0010E296E2A6688
:1074420053D02A6E3050020A15E120EE01F00950A5
:10745200D9260A50DA22000EDF6E09C0D9FF0AC00F
:10746200DAFF480EDF6E09C0D9FF0AC0DAFF000E4C
:10747200DB8E3AD0300438E11D6A20EE01F017505D
:10748200D9261850DA22080EDF6E20EE02F01750CD
:10749200D9261850DA22300EDE6E040EDD6E17C0C9
:1074A200D9FF18C0DAFFDF6E17C0D9FF18C0DAFFA4
:1074B200000EDB8E010E1D6E20EE01F01950D92652
:1074C2001A50DA22080EDF6E20EE02F01950D92689
:1074D2001A50DA22300EDE6E040EDD6E19C0D9FFAC
:1074E2001AC0DAFF800EDF6E1200080E3D6E375CA6
:1074F200000E38580AE237C03DF0326602D0010E63
:1075020003D0320402E1020E326E3D50375E000EAD
:10751200385A20EE01F00950D9260A50DA223DC02D
:10752200DFFF0401040E1C6E380E1B6E36A01BD04A
:1075320037D033C0F6FF34C0F7FFF86A1BC0D9FF5B
:107542001CC0DAFF070EF76403D00800F55005D01F
:10755200F6CFE1FFF7CFE2FFE750DF6E334A342A7E
:107562001B4A1C2A3D063D66E4D71CD033C0F6FFF9
:1075720034C0F7FFF86A1BC0D9FF1CC0DAFF070E40
:10758200F76403D00800F55005D0F6CFE1FFF7CF3E
:10759200E2FFE750DF6E334A342A1B4A1C2A3D06BB
:1075A2003D66E4D712002D0E2B6E3CC05BF0FD0E43
:1075B2005B164EE1D8903C303F0B040D0401000EE7
:1075C200F324176E040EF420186E18C01AF017C0B8
:1075D20019F0040E191A17C0D9FF18C0DAFFDF30EC
:1075E200E8320F0B0D0A31E15D6A20EE02F017500E
:1075F200D9261850DA22DECF5BF0DDCF5CF05BC01B
:10760200D9FF5CC0DAFF300E5D24E16EE26A040E3F
:10761200E222DFCFE7FF20EE02F01750D926185002
:10762200DA22DE2A000EDD225D2A070E5D64DDD736
:1076320020EE02F01750D9261850DA22300EDE6EF4
:10764200040EDD6E92EC36F00CD068EC36F009D008
:107652003CC05BF0FD0E5B165B50040AD8B40EEC26
:1076620038F01200A09A6A6A686A706A0F0E3E6E5B
:10767200710E3D6E406A3F6A426A020E416E49ECEB
:1076820035F0160E6F6E9F0E6B6E7B0E696E456A3D
:107692004550040D000EF324D96E040EF420DA6E68
:1076A200DE6ADE6ADE6ADD6A452A0B0E4564F0D7C1
:1076B2006D8C6E6A6D986D9C05D06896366A046A08
:1076C200056A066A68B6F9D7010E296E2A6E256A1E
:1076D200266A456A4550020DF350090FD96EDA6ADF
:1076E200DE6ADD6A4550020DF350680FD96EDA6A20
:1076F200DE6ADD6A4550760FD96EDA6ADF6A455076
:10770200790FD96EDA6ADF6A452A020E4564E2D73A
:107712000401040E0A6E080E096E160E706E040E37
:10772200036F300E026F080E016F040E006F008FA0
:107732003B6A286A12006D9836BE36D004AE09D074
:10774200020E306E266602D0C9EC37F02A6A296A28
:107752005BD020EE01F01950D9261A50DA22080E19
:10776200DF6E20EE02F01950D9261A50DA22300EBE
:10777200DE6E040EDD6E19C0D9FF1AC0DAFF0C0EE0
:10778200DF6E19C0D9FF1AC0DAFF000EDB8E09C006
:10779200D9FF0AC0DAFF040EDF6E09C0D9FF0AC0A2
:1077A200DAFF000EDB8E30D0040130AF0DD0010EB7
:1077B200306E256602D0C9EC37F02A6A296A27663C
:1077C20023D01CEC3AF020D0020E306E20EE01F0F5
:1077D2001950D9261A50DA22080EDF6E20EE02F076
:1077E2001950D9261A50DA22300EDE6E040EDD6EE2
:1077F20019C0D9FF1AC0DAFFDF6E19C0D9FF1AC04B
:10780200DAFF000EDB8ED9D71200486E8A94FF0E83
:1078120004EC08F0466E8A840E0E4616466645D083
:107822008A968A94610E04EC08F0476A485047240D
:10783200D96EDA6AFF0E04EC08F0DF6E472A070EF3
:107842004764F4D78A84050EB2EC34F0400E3E6EE3
:10785200070EF8EC34F08A864850D96EDA6ADF50A7
:107862000F0B1F1822E14850D96EDA6AD92AFF0E8F
:10787200DF6204D0010E236E000E39D00A0EBAEC7C
:1078820034F01FC042F0423AF00E42164850D96E10
:10789200DA6ADF50436E43380F0B42100001606F0B
:1078A200616943EC37F0010E22D02366E5D7050E5D
:1078B20000017225426E000E7321436E000E742188
:1078C200446E000E7521456E42500F5C43501058B5
:1078D2004450115845501258CFE343EC37F0222A56
:1078E2000A0E2264C9D7010E236E1E6EC5D712007E
:1078F2001450131009E013C0D9FF14C0DAFF010EAF
:10790200DFAE000E446E01D0446A456A4550441011
:1079120064E12E50030AD8B42E6A2E6601D05DD0DF
:107922002E50020A0FE1010E3D6E3F6A3E6A406A26
:10793200020E77EC39F03DC013F03EC014F0030E96
:107942002E6E4BD02E0449E1400E2F6402D0476EBA
:1079520002D02FC047F047502F5E050E00017D6F09
:10796200000E7C6B47C046F02C661ED00DD07F51B6
:10797200D96EDA6A7CC0E1FF7DC0E2FFDFCFE7FFAC
:107982007C4B7D2B7F2B46064666F1D70FD07F516D
:10799200D96EDA6A7CC0E1FF7DC0E2FFDFCFE7FF8C
:1079A2007C4B7D2B7F2B46064666F1D72F6606D091
:1079B2004750400A020ED8A4030E2E6E010E3D6EF1
:1079C2000501050E3F6E3E6A47C040F0020E77EC9D
:1079D20039F03DC013F03EC014F0120020EE01F069
:1079E2001750D9261850DA22DF503E6E3E50055C01
:1079F200000E0658D8A005C03EF03E50055E000EAF
:107A0200065A3D6A0DD0380E3D24D96EDA6A040E4C
:107A1200DA220150E16EE26ADFCFE7FF012A3D2A56
:107A22003E503D5CF0E3065005102BE020EE01F0E5
:107A32001950D9261A50DA22080EDF6E20EE02F013
:107A42001950D9261A50DA22380EDE6E040EDD6E77
:107A520017C0D9FF18C0DAFFDFBC06D019C0D9FFA2
:107A62001AC0DAFF480E05D019C0D9FF1AC0DAFFD2
:107A7200080EDF6E19C0D9FF1AC0DAFF000EDB8EC6
:107A820022D020EE01F01950D9261A50DA22080E1F
:107A9200DF6E20EE02F01950D9261A50DA22300E8B
:107AA200DE6E040EDD6E19C0D9FF1AC0DAFFDF6E7A
:107AB20019C0D9FF1AC0DAFF000EDB8E049E2766BA
:107AC20002D01CEC3AF012003051800A73E1C00E71
:107AD200366E68D0100E346EC80E336E000E386EDD
:107AE200120E376E67D032673AD032511C0F3D6E9C
:107AF2003DC0F6FF100EF76E0900F5CF33F0346E7D
:107B0200020E33243D6E000E34203E6E3DC0F6FF61
:107B12003EC0F7FFF86A070EF76403D00800F5507D
:107B220005D0F6CFE1FFF7CFE2FFE750376E030E45
:107B320033243D6E000E34203E6E3DC0F6FF3EC043
:107B4200F7FFF86A070EF76403D00800F55005D076
:107B5200F6CFE1FFF7CFE2FFE750386E2BD0366A5F
:107B620029D0030E325DFBE23251190F3D6E3DC04A
:107B7200F6FF100EF76E0900F5CF33F0346E33C006
:107B8200F6FF34C0F7FFF86A070EF76403D0080067
:107B9200F55005D0F6CFE1FFF7CFE2FFE750376EA1
:107BA200386A08D03351010A95E0030A9CE0010AC1
:107BB200D8E0D5D7120028660ED06D6A696A160E13
:107BC2006F6E9F0E6B6E7B0E696E01D06D866DA619
:107BD200FDD7010E286E2804D8B46DBA06D0686AA3
:107BE200696A69806988020E286E68B469A403D044
:107BF200689425EC35F06DB267D068B069A005D005
:107C020033EC3BF0040E286E689068B869A803D084
:107C1200ECEC34F0689868AC14D069AC0AD04C6AC9
:107C2200730E4B6E4E6A4D6A506A010E4F6ED6EC61
:107C320035F0689C2B50D8A42B062B6602D01CEC86
:107C42003AF068BA69AA02D076EC35F068B269A255
:107C52000BD07F0E4C6E4B684E6A4D6A506A010E15
:107C62004F6ED6EC35F06A6A040E285CD8B069A66D
:107C72002BD05E6A68A628D06CCF3CF03C30E8324C
:107C8200E8320F0B316E68963CB404D031500001DB
:107C9200790F03D031500001760FD96EDA6ADF70A6
:107CA200316603D0D4EC3AF00BD04C6A720E4B6EB4
:107CB2004E6A3C0E4D6E000E506A4F6AD6EC35F09D
:107CC2005E2A030E5E64D6D7A19A12002E6694D065
:107CD2000101010E456E000E446E400E466EE1EC4F
:107CE20038F04F6E4F5046E00101006738D02CD07B
:107CF2000001826B836B8469010E206E74D00001D7
:107D0200826B010E836FA9EC34F007D00001826B05
:107D1200020E836FFF0E04EC08F0000162D0C2EC89
:107D220036F061D08A96140EE82EFED70001826BDF
:107D3200040E836F01010251E0EC34F00001846F04
:107D4200010E206E8A864FD00151D2E0010AD7E09F
:107D5200030ADCE0010AE3E0070AE4E044D001C1DF
:107D620042F0010E446E020E436E005195EC35F066
:107D7200246A39D00A0E00016E254B6E000E6F2167
:107D82004C6E000E70214D6E000E71214E6E0F5022
:107D92004B5C10504C5811504D5812504E5823E223
:107DA2000FC06EF010C06FF011C070F012C071F011
:107DB200820E06EC3CF0506E50049EE0A9EC34F0CA
:107DC2004B6E4B0410E124660ED0010E246E0001AE
:107DD200826BFE0E836F1E5003E01E6A1F0E01D0DF
:107DE2000F0E846F89D7205007E0080E3D6E000108
:107DF200820ECAEC34F0206A79EC3CF036EF35F0B2
:107E020032050BE130511F0B08E1368E3151030A66
:107E120003E1010E216E01D0216A3267EFD03051A9
:107E22001F0B020A01E0EAD034510F0B01E1E6D048
:107E320034510F0B536E030E535C01E3DFD0285015
:107E4200200A01E0DBD0368E34BF12D034510F0B42
:107E5200020DF350680FD96EDA6ADECF58F0DDCF2B
:107E620059F0040134510F0B536E5350790F10D057
:107E720034510F0B020DF350090FD96EDA6ADECFBF
:107E820058F0DDCF59F034510F0B536E5350760F2B
:107E9200D96EDA6ADF50576E57B002D0589401D0CB
:107EA2005884040134BF06D034510F0B020DF35035
:107EB200680F05D034510F0B020DF350090FD96E24
:107EC200DA6A58C0DEFF59C0DDFF04013151030AEE
:107ED20024E158C0D9FF59C0DAFFDFAE12D034BF57
:107EE20007D034510F0B536E53500001790F06D057
:107EF20034510F0B536E53500001760FD96EDA6A6C
:107F0200DF8258C0D9FF59C0DAFF000EDB8458C0A7
:107F1200D9FF59C0DAFFDB8E71D0040E581A58C04F
:107F2200D9FF59C0DAFFDFAE19D058C0D9FF59C006
:107F3200DAFF7F0EDF1658C0D9FF59C0DAFF000EF4
:107F4200DB8C4C6A050E4B6E59C04EF058C04DF09A
:107F5200506A020E4F6ED6EC35F006D058C0D9FFEB
:107F620059C0DAFF000EDB8C040E581A57B206D045
:107F720058C0D9FF59C0DAFFDFAE26D0040134BFA2
:107F820007D034510F0B536E53500001790F06D0B6
:107F920034510F0B536E53500001760FD96EDA6ACB
:107FA200DF9258C0D9FF59C0DAFF3B0EDF164C6A88
:107FB200050E4B6E59C04EF058C04DF0506A020E7D
:107FC2004F6ED6EC35F006D058C0D9FF59C0DAFF53
:107FD2003B0EDF16700E536E0F0E546E04013451B9
:107FE2000F0B5326000E542253C055F054C056F0C6
:0E7FF20055C0D9FF56C0DAFFFE0EDF16120092
:020000040020DA
:08000000FFFFFFFFFFFFFFFF00
:020000040030CA
:0E000000240E381EFF8080FF0FC00FE00F405F
:00000001FF
