:1000000073EF02F0B8EF06F004EF08F00300A1BAB6
:1000100002D0D0A6FBD712000CEF08F018EF00F0CA
:10003000F26AFC6A2BEC03F0040055EC06F034EC99
:1000400003F033EC03F05EEC04F0F6D737040BE179
:1000500035501F0B08E1010E2F6E3650030A02E1E6
:10006000348001D0349037663BD035501F0B020AE4
:1000700037E139500F0B34E0010E2F6E39500F0B62
:10008000080D040E436E446EF3504326F450442290
:10009000010E39AE000E040DF3504324126EF450DD
:1000A0004420136E3650030A06E112C0D9FF13C074
:1000B000DAFF040E0ED039AE07D012C0D9FF13C03C
:1000C000DAFF400EDF6E0CD012C0D9FF13C0DAFF8A
:1000D000080EDF6E12C0D9FF13C0DAFF000EDB8EF0
:1000E0001200080E206E3D5C000E3E580AE23DC034
:1000F00020F0326602D0010E03D0320402E1020E7B
:10010000326E20C009F420503D5E000E3E5A0401BC
:10011000040E136E240E126E34B20AD015D017D806
:10012000F76403D00800F55002D0F7EC00F01AD8BD
:100130002066F5D70BD00BD8F76403D00800F55034
:1001400002D0F7EC00F00ED82066F5D7120015C0EB
:10015000F6FF16C0F7FFF86A12C0D9FF13C0DAFF26
:10016000070E1200DF6E124A132A154A162A2006BD
:1001700012003550800A32E039D0010E2F6E080E81
:10018000166EA40E156E120E0BD037662ED0010E11
:100190002F6E080E166E380E156E000E3E6E290E6E
:1001A0003D6E23D0010E2F6E3750010F436E43C0BA
:1001B000F6FF080EF76E0900F5CF15F0166E15C0A4
:1001C000F6FF16C0F7FFF86A070EF76403D00800C1
:1001D000F55001D00CD83D6E3E6A07D03850010A68
:1001E000CCE0030AD2E0010ADDE034821200F6CF4F
:1001F000E1FFF7CFE2FFE7501200246B256B29D017
:10020000010E2F6E34B024832BD0010E2F6E28D018
:10021000010E2F6E39500F0B080D040E436E446E05
:10022000F3504326F4504422010E39AE000E040D63
:10023000F3504324126EF4504420136E12C0D9FFC1
:1002400013C0DAFFDF50436E43A40AD0010E246FBF
:1002500007D035501F0BD4E0010AD7E0030AD8E0DD
:100260002F0407E1040E166E240E156E3492020E52
:100270003D6E1200456E316A04010CBF28D0435018
:100280000D5DD8A00DC443F0316A0DD02C0E312481
:10029000D96EDA6A040EDA2245503124E16EE26A40
:1002A000DFCFE7FF312A4350315CF0E3400E0D6FA2
:1002B0000C17010E0CBD000E446E443A44464446F1
:1002C0000C514418BF0B44180C6F0C870C8F120094
:1002D000456E400E436401D0436E466A0DD04550D2
:1002E0004624D96EDA6A6C0E4624E16EE26A040E88
:1002F000E222DFCFE7FF462A4350465CF0E343C0EB
:1003000011F4400E04011017010E10BD000E446ED2
:10031000443A4446444610514418BF0B4418106FE9
:100320001087108F1200436E080E066E0401040E33
:10033000086E1C0E076E436608D0040E086E140E7D
:10034000076E040E196E000E02D0040E196E186EA0
:1003500018C0D9FF19C0DAFF05C0DEFF06C0DEFFF6
:1003600007C0DEFF08C0DEFF18C0D9FF19C0DAFFE2
:10037000DF8E1200030E336E6B6A686A7B0E696E45
:100380006E6A716A726A736A746A756A766A776A83
:10039000160E706E6D8C03D068962FEC03F068B665
:1003A000FBD76D9C6D98040E056E000E93EC01F06A
:1003B000010E2D6E346A416A000E0BEF03F0300E11
:1003C000F86E62C044F044C045F0466A4550F76E8E
:1003D00061C0F7FF246A0FD06551A0082424D96EAC
:1003E000DA6ADF50F56E0C00C40EA66EB50EA1ECF5
:1003F00002F00900242A00016551245CD8B01200E3
:10040000EBD782A018EC00F0060EF66E12D84B5017
:10041000600A0D0ED8B44A1808E1F66A0AD84A28CC
:10042000D8B44B28D8A400EF08F018EC00F000EF87
:1004300000F0100EF76E0900F5CF4AF00900F5CF75
:100440004BF0100C010E2F6E716A726A736A746A37
:10045000756A766A776A226A2250420FD96EDA6A22
:10046000DF6A222A2250F8E037C041F041500BECFD
:1004700003F0376602D0050E01D0060E336E12006F
:100480003350040A07E137C06EFF6E50050ED8B432
:10049000030E336E30040EE171EC00F03250020AAC
:1004A00003E1040E040104D00401480E08BD080E47
:1004B000086F088F1200256A10D061512524A96E9B
:1004C0006551A0082524D96EDA6ADF50A86E040EA3
:1004D000A66EB50EA1EC02F0252A00016551255C3F
:1004E000D8B01200EAD701EE00F0400EEE6AE8063E
:1004F000FDE100EE60F0820EEE6AE806FDE100EE3E
:1005000001F0420EEE6AE806FDE1000EF86E000111
:1005100001EF02F00401086B326A00AF02D0006BF9
:100520002D6A04AF03D0046B010E2D6E306A2F6A62
:100530003D6A3E6A6D98B9EC07F002EC00F06CEF92
:1005400007F0436EF29E33EC03F04350B50A04E02B
:10055000030ED36E0300FED7550EA76EAA0EA76E2C
:10056000A682A6B2FED7A6941200316A1E0E716E44
:10057000400E0D6F040E0F6F2C0E0E6F080E0C6FD9
:100580000C8F040E136F6C0E126F400E106F400C28
:100590002C04D8B402EC03F06D6A150E6F6E696A14
:1005A0006D86BAEC01F0010E336E2C6A120069CF31
:1005B00023F0040E696E68986D82A19AA08A06ECF9
:1005C00000F0A09A23506912120005D02FEC03F01E
:1005D0004306D8A0440644504310D8B41200F6D7BE
:1005E00026EC03F06D92699401D0689468A412001F
:1005F000FCD7296A01680268036804682A6A010E48
:100600002B6E010C6D926D6AFF0E44684368E5EC39
:1006100002F0336A1200436E430404E1B5EC02F0C9
:10062000F9EC02F012002C04D8A46DB602D0C8EC8C
:1006300002F0120002EC03F0FF0000F000F01200E4
:100640006DB602EC03F02C6A13EF03F0030E446E58
:10065000436AEBEF02F0F9EC02F020EF03F0040044
:0A0660001200120012001200120036
:1008000000B6046134034D006900630072006F009C
:1008100063006800690070002000540065006300F8
:1008200068006E006F006C006F00670079002000A8
:1008300049006E0063002E000902290001010080BA
:100840003209040000020300000009211101000127
:10085000221D000705810340000107050103400038
:10086000012603480049004400200055005300427F
:1008700000200042006F006F0074006C006F006188
:10088000006400650072000600FF0901A101190162
:100890002940150026FF007508954081001901299F
:1008A000409100C01201000200000008D8043C0082
:1008B0000101010200010403090400003350060A8B
:1008C000D8B46DB28ED1296671D104010CBF89D123
:1008D000400E436E0001600E3AEC01F0010E296EED
:1008E0001E6A1E500001A10FD96EDA6ADF6A1E2A45
:1008F0003F0E1E64F6D775D1040110BF72D1020EEF
:100900000001A16F3A0EA26F010EA36FA46FA56B39
:10091000100EA66FA76BA86BA96B700EAA6FAB6BBE
:10092000AC6B030EAD6FAE6BAF6B300EB06FB16BD7
:100930000E0EB26FB36BB46BB56B040EB66FB76BC4
:10094000B86B200EB96FBA6B080EBB6FBC6BBD6B7A
:10095000BE6BBF69020EBF6FC06BC16BF00EC26F82
:10096000C36BC46B010EC56FC66BC76BC869A50EA0
:10097000DA6F400E436EA10E68EC01F0296A31D1A6
:10098000010E2B6E6167FAD72B6AF8D71D6A400EED
:100990001C6E2FEC03F0F86A1CC048F01DC049F033
:1009A000D89049324832D890493248324850F76E90
:1009B0001C40E842C00BF66E940EA66EB50EA1EC7C
:1009C00002F055EC06F01C4A1D2A000E1C5C020EBB
:1009D0001D58DFE31E6A1EC0A9FFA868040EA66E9C
:1009E00055EC06F0B50EA1EC02F01E3EF4D7200E39
:1009F000F86EF76AF66A940EA66EB50EA1EC02F0D8
:100A0000BDD76351300A05E12B66B8D7DFEC01F0A2
:100A1000B5D76351F00A03E15BEC02F0AFD70128D0
:100A2000D8B40228D8B40328D8B4042808E161C097
:100A300001F062C002F063C003F064C004F004502F
:100A4000641908E10350631905E10250621902E1DB
:100A50000150611993E11E6A1AD06551A0081E2445
:100A6000D96EDA6A0101000E2A24E16EE26A010EF3
:100A7000E222DFCFE7FF2A2A012A000E0222032208
:100A800004222A50200AD8B4F2EC05F01E2A0001F4
:100A900065511E5C01E372D7E0D7F2EC05F0016806
:100AA0000268036804686AD7070EA16F61C0A2F0EC
:100AB00062C0A3F063C0A4F064C0A5F065C0A6F056
:100AC000200E0B6E62C00AF061C009F01E6A23D0CE
:100AD0006351F00A0DE161511E24A96EA66AA68039
:100AE0006551E1081E24D96EDA6AA8CFDFFF12D063
:100AF00009C0F6FF0AC0F7FF0BC0F8FF6551E10817
:100B00001E24D96EDA6A0800F5CFDFFF092A000E2D
:100B10000A220B221E2A65511E5CDAE3040110BF73
:100B200060D0400E436E0001A10E68EC01F026D7A4
:100B300014EC07F023D70C0EA16F010EA36F020E69
:100B4000A26F160EF66E100EF76E0900F5CFA4F028
:100B50000A00F5CFA5F0060EA66F100EA76FA86BC2
:100B6000A96B600EAB6F0D0EAA6F400EAC6F000E3E
:100B7000AD6BAE6BAF6BB069B169B269B369B46BA1
:100B8000B569B669B76BB869B969BA69BB69BC6957
:100B9000BD69040110BF25D0400E436E0001A10EB7
:100BA00068EC01F0EBD61AEC03F0E8D600016051D6
:100BB000020A01E1A1D6010A01E1E2D6070A01E138
:100BC000E5D6010A01E11DD7030A01E166D7010A52
:100BD00001E16AD70F0AE7E0010AAAE0050AABE0E3
:100BE000CDD612002A50015C446E000E0258456EAC
:100BF000000E0358466E000E0458476E44500F6EA8
:100C000045C010F046C011F0F86A10C044F044C06E
:100C100045F0466A4550F76E0FC0F6FF266AF6505B
:100C20001F0B276EE00EF616286A276612D02A5090
:100C30000DE00101000E2624D96EDA6A010EDA22D7
:100C4000DF50F56E0D00262A2A0606D0F5680D0045
:100C500003D0F5680D002706282A1F0E2864E5D763
:100C60000A00A40EA66EB50EA1EC02F0286A18D0F8
:100C7000000E446E010E456E26504426000E45229D
:100C800028504424D96E000E4520DA6E0101000E72
:100C90002824E16EE26A010EE222DFCFE7FF282A74
:100CA0002A50285CD8B01200E3D713EC03F0336667
:100CB00001D05DD068B4F0EC02F06DB258D068B0ED
:100CC000BAEC01F068B8D7EC02F0030E335C4FE3E6
:100CD0002E6A68A64CD06C506CCF46F07C0E46163F
:100CE0003AE16CB205D00401040E1B6E000E03D075
:100CF0000401040E1B6E1A6E68961AC0D9FF1BC041
:100D0000DAFFDF30E8320F0B0D0A2DE1216A20EE09
:100D100002F01A50D9261B50DA22DECF46F0DDCF82
:100D200047F046C0D9FF47C0DAFF2150350FE16ECA
:100D3000E26ADFCFE7FF20EE02F01A50D9261B50FF
:100D4000DA22DE2A000EDD22212A070E2164DFD7F7
:100D50008AEC02F008D06C50040A04E1689640EC7A
:100D600002F001D068962E2A030E2E64B2D712002C
:100D700035501F0B436E430456E1395054E1365051
:100D8000060A18E01ED0020E2F6E080E166E4A0ECE
:100D9000156E3E6A090E0CD0020E2F6E410404E15E
:100DA000080E166E870E156E41040AE13E6A1D0E8E
:100DB0003D6E06D03850210AE6E0030AEDE0010A54
:100DC00034823538E832030B436E43042CE11ED0E5
:100DD00032EC03F028D031EC03F025D0020E2F6E58
:100DE000166A400E156E3492010E3D6E1CD0020E36
:100DF0002F6E38C040F017D0020E2F6E166A3F0ECD
:100E0000F1D7020E2F6E37C03FF00DD03650010AD9
:100E1000DFE0030AE3E0010AEFE00A0ADCE0030A8C
:100E2000E6E0010AEEE012000E6A100E0D6E0C6A8A
:100E30001F6A0CC0F6FF0DC0F7FF0EC0F8FF44D8C4
:100E40000800F5CFDFFF0C2A000E0D220E221F2A0C
:100E50003F0E1F64EED70D0E066F600E076FF86A27
:100E6000100EF76EF66A940EA66EB50EA1EC02F0A7
:100E70000E6A100E0D6E3F0E0C6E1F6E0EC0F8FF48
:100E80000DC044F044C045F0466A4550F76E0CC0B2
:100E9000F6FF1AD8DF50F56E0C001FC044F01F0E8D
:100EA000441607E12FEC03F0A40EA66EB50EA1ECDC
:100EB00002F00C06000E0D5A0E5A0A001F6601D0F1
:100EC00002D01F06DBD712000101000E1F24D96ECD
:100ED000DA6A010EDA2212002F6612D0040E040123
:100EE000086F088F056E2D0405E1010E93EC01F0EB
:100EF0002D6A3ED0000E93EC01F0010E2D6E38D01D
:100F000035AE1AD0010E306E3D503B5C3E503C5821
:100F100004E23BC03DF03CC03EF071EC00F0480EF6
:100F2000056E010E93EC01F0000E93EC01F0040E3F
:100F30000B6F240E0A6F19D0020E306E040E056E70
:100F40003C503B1002E1480E056E2D0405E1010EF8
:100F500093EC01F02D6A05D0000E93EC01F0010E28
:100F60002D6E3C503B1004E1096B480E086F088F52
:100F700012003538E832030B42E12CD0010E2F6EFF
:100F8000040E336E3CD0B9EC00F039D022EC02F004
:100F900036D0010E2F6E166A410E156E3492010E78
:100FA0003D6E2DD0FDEC00F02AD026EC00F027D0CD
:100FB000010E2F6E3950420F456E166A45C015F06E
:100FC000EDD7010E2F6E3950420FD96EDA6A37C055
:100FD000DFFF15D03650E6E0010AE7E0020AE5E05F
:100FE000060ACCE0030ACFE0010A09E00F0AD1E0CB
:100FF000010ACCE0030ADCE0010AE3E0070A120080
:021006000D607B
:020000040020DA
:08000000FFFFFFFFFFFFFFFF00
:020000040030CA
:0E000000240E381EFF8080FF0FC00FE00F405F
:00000001FF
