:04100000B4EF3AF01F
:0E100800456E45C0C9FFC7A0FED7C9501200F3
:1010180000596F7520617265206465616420202025
:1010280020202020202020202020202020202020B8
:101038002047616D65206F76657220202020202072
:1010480020476F6F64206C75636B20202020202060
:101058002049443A000000000000000000000000A1
:10106800004F7574206F6620616D6D6F2020202001
:10107800205265737061776E696E6720202020208A
:1010880020436F6E6E65637465642E2E2E2E0000ED
:1010980000483A2020204C3A202020413A202020A5
:1010A8002057616974696E672E2E2E2E000000008D
:0210B800000036
:10744400010E8AEF3AF0456E210EE82EFED700F0C9
:10745400452EFAD71200898A0C0E25EC3AF0899A47
:107464000E0E25EF3AF0898A030E68EC3AF0899AF9
:10747400040E68EF3AF04A6E4A50400DF350492426
:10748400800F8AEF3AF0456EFA0E00F0E82EFDD731
:10749400452EFAD71200456E030EE82EFED700F0F3
:1074A400452EFAD71200456E45C0A9FFA69EA69C9C
:1074B400A680A8501200456E8950F00B466E4550C8
:1074C4000F0B476E4610896E00F01200466E0D0ECB
:1074D400456EFC0EE82EFED7452EFCD7462EF7D778
:1074E40012000D6A0E6A0F6A106AF80EB16EA0924D
:1074F400B36AB26AB1801200486E48380F0B5DEC73
:107504003AF02DEC3AF048505DEC3AF02DEF3AF0B9
:10751400486E48380F0B5DEC3AF035EC3AF04850C1
:107524005DEC3AF035EF3AF0476E8A944750200903
:1075340004EC08F0465004EC08F08A84050E4DEF84
:107544003AF0466E46C0A9FF45C0A8FFA69EA69C79
:10755400A684F29EF29E550EA76EAA0EA76EA68270
:10756400F28EAA0C00EE60F0210EEE6AE806FDE150
:1075740000EE01F0440EEE6AE806FDE1000EF86E3E
:107584000001A1EF3EF0DB0EB26403D0B350050A54
:1075940003E0050EB36409D0B190B36AB26A0D2A50
:1075A400000E0E220F221022B1801200476E47C037
:1075B40046F002D0462A452A45C0F6FF100EF76E63
:1075C4004650D96EDA6A0800F5CFDFFFDF50D8B431
:1075D4001200F0D7466E46C047F001D0472A475004
:1075E400D96EDA6ADF5003E0F9D7472A452A4550B5
:1075F400D96EDA6A4750E16EE26ADFCFE7FFE750FF
:10760400D8B41200F2D74C6E245019E01D38F00B98
:107614004C10016E4AC002F04D6A4B504D24D96E95
:10762400DA6A4D50030FE16EE26ADFCFE7FF4D2ABD
:10763400050E4D64F2D7236A246AE8EC3BF012008D
:107644004850471017E0010E496E04D0D8904736D1
:107654004836492A48AEFAD74750455C4850465800
:1076640004E34750455E4850465AD8904832473262
:10767400492EF2D745C045F046C046F01200899A1B
:107684008998030E5DEC3AF035EC3AF02DEC3AF0C3
:107694002DEC3AF0020E5DEC3AF035EC3AF0280E9F
:1076A4008AEC3AF00C0E8AEC3AF0010E8AEC3AF0CD
:1076B400060E8AEC3AF0020E8AEF3AF0476E3F0E5D
:1076C400C716C66A4750C6124650C71205D0C78CA3
:1076D4000FD0C78CC6880CD04550F9E0020AF9E0F7
:1076E400010AF8E005D0928A938208D0939206D0DA
:1076F4004750040AF8E0010AF7E0F8D79380949E13
:10770400C68A1200496A4A6A485047101BE0010EB3
:107714004B6E04D0D890473648364B2A48AEFAD739
:10772400D89049364A364750455C4850465805E398
:107734004750455E4850465A4980D89048324732AF
:107744004B2EEED749C045F04AC046F01200506EA9
:107754004BC049F050503DEC3AF08988516A19D039
:1077640051504C244E6E000E4D204F6E4EC0F6FF0D
:107774004FC0F7FFF86A070EF76403D00800F5500E
:1077840005D0F6CFE1FFF7CFE2FFE7507EEC3AF009
:10779400512A51504C244E6E000E4D204F6E4EC057
:1077A400F6FF4FC0F7FFF86A070EF76403D008002E
:1077B400F55005D0F6CFE1FFF7CFE2FFE75000091F
:1077C40003E00F0E5164CCD7899812008A96010EFB
:1077D4004DEC3AF00A0E466E000E96EC3AF08A949E
:1077E400A00E04EC08F0496A4950010FD96EDA6A18
:1077F400DF5004EC08F0492A070E4964F5D78A845F
:10780400010E4DEC3AF08A860DC011F00EC012F054
:107814000FC013F010C014F0140E4DEC3AF08A941B
:10782400170E04EC08F0000E04EC08F0486E8A848D
:1078340048A8F2D78A960B0E466E000E96EC3AF0E4
:10784400200E466E070E96EC3AF08A861200200E41
:1078540055EC3AF01D6E0F0E1D6405D01D6E456E7D
:10786400200EA3EC3AF08A968A84000E456A466A92
:1078740060EC3BF0640E4DEC3AF0466A010E96EC77
:107884003AF00B0E466E000E96EC3AF0010E466E80
:10789400030E96EC3AF0010E466E020E96EC3AF0A8
:1078A400466A040E96EC3AF0080E466E110E96ECFB
:1078B4003AF0260E466E060E96EC3AF08A94050EC1
:1078C4004DEC3AF0E20E04EC08F08A84050E4DEC1F
:1078D4003AF08A86010E246E010C990E456E000161
:1078E400600ED8EC3AF01CC04CF04D6A4F6A0A0E98
:1078F4004E6E0001710EFEEC3CF071C062F00001AE
:107904007251D8A472C063F020C04CF04D6A4F6A23
:107914000A0E4E6E710EFEEC3CF071C067F0000171
:107924007251D8A472C068F015C04CF016C04DF066
:107934004F6A0A0E4E6E710EFEEC3CF071C06CF094
:10794400000172510AE072C06DF0735106E073C019
:107954006EF07451D8A474C06FF04B6A4D6A600E17
:107964004C6E000EA9EF3BF082B03AD022503CE0BE
:107974001650151002E11E5037E01B50020A34E184
:10798400226A8B8CD58E010E3F6E020E406E1E66EF
:107994002BD01506D8A016061650151007E10F0EA9
:1079A4004A6E3F0E4B6E000E05EC3BF0010E266E48
:1079B4001650151019E10A0E196E010E1A6E0DC03B
:1079C40009F00EC00AF00FC00BF010C00CF04B6AA7
:1079D400100E4D6E690E4C6E010EA9EC3BF004D0F6
:1079E400D5BE02D0010E226E5F0ED66404D08B9CED
:1079F400D76AD66AD59E1200536E4CC050F04DC063
:107A040051F050C045F051C046F04EC047F04FC051
:107A140048F084EC3BF045C050F046C051F0532A86
:107A240051505010EEE15350D96EDA6A000EDF6AFD
:107A340053064CC045F04DC046F04EC047F04FC011
:107A440048F022EC3BF04550526E4CC045F04DC01E
:107A540046F04EC047F04FC048F084EC3BF045C0C0
:107A64004CF046C04DF0090E526402D0070E522667
:107A7400300E52265350D96EDA6A52C0DFFF5306D5
:107A84004D504C10D6E1532A1200506E8A94FF0ECA
:107A940004EC08F04E6E8A840E0E4E164E6644D0E8
:107AA4008A968A94610E04EC08F04F6A50504F2471
:107AB400D96EDA6AFF0E04EC08F0DF6E4F2A070E67
:107AC4004F64F4D78A84050E4DEC3AF0400E466EAE
:107AD400070E96EC3AF08A865050D96EDA6ADF5077
:107AE4000F0B1D1821E15050D96EDA6AD92AFF0E06
:107AF400DF6204D0010E246E000E34D00A0E45EC71
:107B04003AF01DC04AF04A3AF00E4A165050D96E67
:107B1400DA6ADF504B6E4B380F0B4A10016E026865
:107B2400E8EC3BF0010E1ED02466E6D7050E1124C6
:107B34004A6E000E12204B6E000E13204C6E000E87
:107B440014204D6E4A500D5C4B500E584C500F583B
:107B54004D501058D1E3E8EC3BF0232A0A0E23647D
:107B6400CBD7C8D71200370E47EC3DF0000901E02F
:107B7400C7D0E4D01DC03FF016C052F052C053F03D
:107B8400546A5350406E15C041F01CC042F020C0EE
:107B940043F01BC044F04A6A3F0E4B6E000E05ECE6
:107BA4003BF0CCD039C019F03AC027F03BC028F0E4
:107BB4003CC029F03DC02AF00DC009F00EC00AF007
:107BC4000FC00BF010C00CF0010E1A6E4B6A4D6A18
:107BD400270E4C6E010EA9EC3BF0B0D030C036F04D
:107BE4002FC035F02EC034F02DC033F02CC032F04D
:107BF4002BC031F03EC030F03DC02FF03CC02EF021
:107C04003BC02DF03AC02CF039C02BF097D039503E
:107C1400536E526A3A505224156E000E5320166E5B
:107C24003B50536E526A3C505224176E000E532040
:107C3400186E3DC01EF0010E266E80D039C01CF0B7
:107C44003AC021F0F8D739C020F03AC01FF0F3D77A
:107C54003950536E526A3A505224176E000E532014
:107C6400186E3BC01EF03CC021F03DC020F03EC069
:107C74001FF064D039C045F0200EA3EC3AF039C0AF
:107C84001DF05CD01C6A5AD016C052F052C053F09A
:107C9400546A53503F6E15C040F018C052F052C0A1
:107CA40053F0546A5350416E17C042F01EC043F063
:107CB400090E4A6E3F0E4B6E000E05EC3BF03ED0B3
:107CC4001CC03FF021C040F00A0E4A6E3F0E4B6EBE
:107CD400000E05EC3BF032D020C03FF01FC040F056
:107CE400010E45EC3AF00B0E4A6E3F0E4B6E000E41
:107CF40005EC3BF023D039C01BF0010E256E1ED0DD
:107D0400385001E137D7010A01E14CD7030A01E1F8
:107D140065D7010A01E17BD7070A90E0010A93E0E5
:107D2400030A96E0010AA6E00F0AACE0010AACE0FF
:107D3400030AC6E0010AD0E0070ADDE01200F10EF2
:107D4400936EC00E926E949E949C8B9C41EC3BF07F
:107D540029EC3CF04B6A100E4D6EA90E4C6E000ED1
:107D6400A9EC3BF01DC04CF04D6A4F6A0A0E4E6EF2
:107D74000001710EFEEC3CF0590E456E0001600EE0
:107D8400D8EC3AF00001710E456E600EECEC3AF05E
:107D94004B6A4D6A600E4C6E010EA9EC3BF0070E67
:107DA400D56EF29AF00ECD6ECF6ACE6A9D90010E1A
:107DB400226E1B6A010E256E266E73EC3AF0C5EC3A
:107DC4003AF0B5EC3DF0D5D0255001E1DFD022ECFE
:107DD4003AF04B6A100E4D6E890E4C6E000EA9ECF3
:107DE4003BF0496A010E3DEC3AF0256ACFD02550AC
:107DF4000BE022EC3AF0256A010E266E21C01CF03D
:107E040017C015F018C016F0265007E06FEC3CF0D0
:107E1400496A010E3DEC3AF0266AB6EC3CF0F00EED
:107E2400815CD8A0CDB001D0CD80EF0E816402D0AA
:107E3400CDB002D08BAC03D0CD90CF6ACE6ADB0E2E
:107E4400CE6403D0CF50050A03E0050ECF649ED064
:107E5400CF6ACE6A1C061C6651D020042AE11F6634
:107E640028D0200622EC3AF0190E456E270ED8ECE5
:107E74003AF00A0E196E010E1A6E0DC009F00EC00A
:107E84000AF00FC00BF010C00CF04B6A100E4D6ED0
:107E9400190E4C6E010EA9EC3BF00E0E4A6E3F0E0D
:107EA4004B6E000E05EC3BF0050E1B6E010E256EAD
:107EB40025D01F6601D02006790E456E270ED8EC1A
:107EC4003AF0090E196E010E1A6E0DC009F00EC0BB
:107ED4000AF00FC00BF010C00CF04B6A100E4D6E80
:107EE400790E4C6E010EA9EC3BF00D0E4A6E3F0E5E
:107EF4004B6E000E05EC3BF0040ED7D76FEC3CF054
:107F0400496A010E3DEC3AF041D025503FE022ECA5
:107F14003AF04B6A100E4D6E390E4C6E000EA9EC01
:107F24003BF0496A010E3DEC3AF05FD725500FE073
:107F34004B6A100E4D6E490E4C6E000EA9EC3BF0D0
:107F4400256A17C015F018C016F021C01CF0196678
:107F54001DD0010E256E020E1B6E18D0255016E0A2
:107F64004B6A100E4D6E390E4C6E000EA9EC3BF0B0
:107F74003CD71B50010A01E127D7030A01E137D797
:107F8400010AC3E0070AD2E0010AE8E0195001E15E
:107F940016D7E80E0924556E030E0A20566E000EFD
:107FA4000B20576E000E0C20586E0D50555C0E5071
:107FB40056580F5057581050585801E300D71A50CC
:107FC4000AE04B6A100E4D6E290E4C6E010EA9ECA0
:107FD4003BF01A6A09D04B6A4D6A270E4C6E010EAB
:107FE400A9EC3BF0010E1A6E0DC009F00EC00AF0A8
:0C7FF4000FC00BF010C00CF01906E1D615
:020000040020DA
:08000000FFFFFFFFFFFFFFFF00
:020000040030CA
:0E000000240E381EFF8080FF0FC00FE00F405F
:00000001FF
